:100000000C9446000C9465000C9465000C946500FB
:100010000C9465000C9465000C9465000C946500CC
:100020000C9465000C9465000C9465000C946500BC
:100030000C9465000C94DE000C9465000C94650033
:100040000C9465000C9465000C9465000C9465009C
:100050000C9465000C9465000C9465000C9465008C
:100060000C9465000C9465000C9465000C9465007C
:100070000C9465000C9465000C9465000C9465006C
:100080000C9465000C9465000C94650011241FBE4F
:10009000CFEFD0E4DEBFCDBF11E0A0E0B1E0E6E2FB
:1000A000F5E000E00BBF02C007900D92A231B1074E
:1000B000D9F721E0A2E1B1E001C01D92AD31B20754
:1000C000E1F70E944F020C9491020C940000CF9330
:1000D000DF9300D01F92CDB7DEB789837B836A831D
:1000E00089818A3031F48A819B81BC018DE00E9434
:1000F000670080EC90E0FC018081882F90E08072A6
:100100009927892BB1F386EC90E02981FC012083AB
:1001100080E090E00F900F900F90DF91CF910895C5
:10012000CF93DF93CDB7DEB781E890E02BE0FC0101
:10013000208388E890E02DE730E0FC0131832083C4
:100140008FE690E022E0FC01208384E890E0FC014F
:100150001182108280910E0190910F01A0911001E7
:10016000B09111018093130190931401A093150194
:10017000B09316018FE590E02FE530E0F901208182
:100180002068FC0120830000DF91CF910895CF9378
:10019000DF93CDB7DEB781E890E0FC01108200006C
:1001A000DF91CF910895CF93DF93CDB7DEB781E094
:1001B000809312010000DF91CF9108951F920F925A
:1001C00000905F000F92112400905B000F922F931C
:1001D0003F934F935F936F937F938F939F93AF93CF
:1001E000BF93EF93FF93CF93DF93CDB7DEB78091AB
:1001F000130190911401A0911501B091160101977E
:10020000A109B1098093130190931401A0931501E2
:10021000B09316018091130190911401A0911501E2
:10022000B0911601892B8A2B8B2B91F40E94D3005D
:1002300080910E0190910F01A0911001B0911101D8
:100240008093130190931401A0931501B0931601AC
:100250000000DF91CF91FF91EF91BF91AF919F91FE
:100260008F917F916F915F914F913F912F910F905F
:1002700000925B000F9000925F000F901F90189506
:10028000CF93DF9300D000D0CDB7DEB769837A83F8
:100290008B839C8389819A81AB81BC8180930E0181
:1002A00090930F01A0931001B093110180910E0162
:1002B00090910F01A0911001B09111018093130151
:1002C00090931401A0931501B093160100000F90B4
:1002D0000F900F900F90DF91CF910895CF93DF9300
:1002E0001F92CDB7DEB785E290E0FC018081898363
:1002F000809118019091190182309105C9F18330E4
:10030000910528F4009759F0019781F09CC0833043
:10031000910509F44FC0049709F46DC094C081E0C1
:1003200090E090931901809318018DC080911A017B
:10033000882341F080911701882321F481E0809384
:1003400017010AC080911A01882331F080911701AA
:10035000882311F01092170180911701882309F06A
:100360006BC083E090E0909319018093180164C002
:1003700080911A01882341F080911701882321F48C
:1003800081E0809317010AC080911A01882331F01F
:1003900080911701882311F01092170180911701A5
:1003A000882309F04BC081E090E09093190180937D
:1003B000180144C080911A01882341F080911701EF
:1003C000882321F481E0809317010AC080911A01EB
:1003D000882331F080911701882311F010921701C2
:1003E00080911701882361F584E090E090931901D2
:1003F0008093180125C080911A01882341F08091D3
:100400001701882321F481E0809317010AC08091AD
:100410001A01882331F080911701882311F010927E
:10042000170180911701882369F482E090E090938E
:1004300019018093180106C0000005C0000003C028
:10044000000001C0000080911801909119018230D4
:10045000910589F08330910528F40097A9F0019760
:1004600039F013C08330910549F0049751F00DC065
:1004700081E089830AC082E0898307C082E08983A2
:1004800004C084E0898301C0000085E290E02981F6
:10049000FC01208300000F90DF91CF910895CF934E
:1004A000DF93CDB7DEB781E290E0FC01108282E2FB
:1004B00090E02FEFFC01208384E290E02FEFFC011D
:1004C000208385E290E0FC0110826CE271E080E024
:1004D00090E00E9440010E94900085E290E021E0BF
:1004E000FC0120831092190110921801109217013B
:1004F00080E290E0FC018081882F90E08170992754
:1005000021E0892B09F020E0822F80931A010E94BC
:100510006E010000809112018823E1F31092120114
:06052000E7CFF894FFCFC5
:10052600000000020000000067000000000001005B
:020536000000C3
:00000001FF
