:100000000C9456000C9475000C9475000C947500BB
:100010000C9475000C9475000C9475000C9475008C
:100020000C9475000C9475000C9475000C9475007C
:100030000C9475000C94EE000C9475000C947500F3
:100040000C9475000C9475000C9475000C9475005C
:100050000C9475000C9475000C9475000C9475004C
:100060000C9475000C9475000C9475000C9475003C
:100070000C9475000C9475000C9475000C9475002C
:100080000C9475000C9475000C9475009801A201F5
:10009000D501DC01EA011E025202E3019B02B80213
:1000A0009F02A902B802B802B802B30211241FBE0F
:1000B000CFEFD0E4DEBFCDBF11E0A0E0B1E0ECE0D7
:1000C000F6E000E00BBF02C007900D92A231B1072D
:1000D000D9F721E0A2E1B1E001C01D92AC31B20735
:1000E000E1F70E94C7020C9404030C940000CF9324
:1000F000DF9300D01F92CDB7DEB789837B836A83FD
:1001000089818A3031F48A819B81BC018DE00E9413
:10011000770080EC90E0FC018081882F90E0807275
:100120009927892BB1F386EC90E02981FC0120838B
:1001300080E090E00F900F900F90DF91CF910895A5
:10014000CF93DF93CDB7DEB781E890E02BE0FC01E1
:10015000208388E890E02DE730E0FC0131832083A4
:100160008FE690E022E0FC01208384E890E0FC012F
:100170001182108280910E0190910F01A0911001C7
:10018000B09111018093130190931401A093150174
:10019000B09316018FE590E02FE530E0F901208162
:1001A0002068FC0120830000DF91CF910895CF9358
:1001B000DF93CDB7DEB781E890E0FC01108200004C
:1001C000DF91CF910895CF93DF93CDB7DEB781E074
:1001D000809312010000DF91CF9108951F920F923A
:1001E00000905F000F92112400905B000F922F93FC
:1001F0003F934F935F936F937F938F939F93AF93AF
:10020000BF93EF93FF93CF93DF93CDB7DEB780918A
:10021000130190911401A0911501B091160101975D
:10022000A109B1098093130190931401A0931501C2
:10023000B09316018091130190911401A0911501C2
:10024000B0911601892B8A2B8B2B91F40E94E3002D
:1002500080910E0190910F01A0911001B0911101B8
:100260008093130190931401A0931501B09316018C
:100270000000DF91CF91FF91EF91BF91AF919F91DE
:100280008F917F916F915F914F913F912F910F903F
:1002900000925B000F9000925F000F901F901895E6
:1002A000CF93DF9300D000D0CDB7DEB769837A83D8
:1002B0008B839C8389819A81AB81BC8180930E0161
:1002C00090930F01A0931001B093110180910E0142
:1002D00090910F01A0911001B09111018093130131
:1002E00090931401A0931501B093160100000F9094
:1002F0000F900F900F90DF91CF910895CF93DF93E0
:10030000CDB7DEB78091180190911901CC01A0E022
:10031000B0E040E050E027E030E0841B950B281768
:10032000390708F4F2C08A5B9F4FFC010C94FB0272
:1003300087E080931A0181E090E090931901809307
:100340001801E4C080911B01882339F481E090E01A
:100350009093190180931801D9C080911B018130BD
:1003600039F482E090E09093190180931801CEC097
:1003700080911B01823039F483E090E09093190161
:1003800080931801C3C080911B01833039F487E04A
:1003900090E09093190180931801B8C081E090E03B
:1003A0009093190180931801B1C084E090E090937C
:1003B000190180931801AAC085E090E0909319017B
:1003C00080931801A3C086E090E090931901809378
:1003D00018019CC080911B01882339F481E090E0D2
:1003E000909319018093180191C080911B01823074
:1003F00039F483E090E0909319018093180186C04E
:1004000080911B01833039F487E090E090931901CB
:10041000809318017BC0809117018A3049F41092B3
:10042000170182E090E090931901809318016EC04B
:10043000809117018F5F8093170168C080911B0125
:10044000882339F481E090E090931901809318019A
:100450005DC080911B01813039F482E090E090937F
:1004600019018093180152C080911B01833039F427
:1004700087E090E0909319018093180147C0809124
:1004800017018A3049F41092170183E090E09093AD
:100490001901809318013AC0809117018F5F8093F2
:1004A000170134C080911B01882339F481E090E06A
:1004B000909319018093180129C080911B0181300C
:1004C00039F482E090E090931901809318011EC0E6
:1004D00080911B01823039F483E090E09093190100
:1004E0008093180113C080911B01833039F487E099
:1004F00090E0909319018093180108C086E090E085
:10050000909319018093180101C000008091180197
:1005100090911901CC01A0E0B0E040E050E027E06C
:1005200030E0841B950B2817390700F1825B9F4F41
:10053000FC010C94FB0287E080931A011EC080919D
:100540001A018930B8F480911A018F5F80931A01E3
:1005500011C080911A01882379F080911A0181508D
:1005600080931A0109C010921A0107C0000005C04B
:10057000000003C0000001C0000085E290E020916F
:100580001A01FC0120830000DF91CF910895CF93E1
:10059000DF93CDB7DEB781E290E0FC01108282E20A
:1005A00090E02FEFFC01208384E290E02FEFFC012C
:1005B000208385E290E0FC01108264E670E080E038
:1005C00090E00E9450010E94A00010921901109228
:1005D000180180E290E0FC01808180958370809317
:1005E0001B010E947E010000809112018823E1F32B
:1005F00010921201EECFEE0FFF1F0024001C0BBE65
:0C0600000790F691E02D0994F894FFCFCC
:10060C000000000200000000770000000000010064
:02061C000000DC
:00000001FF
